{
  "_format": "hh-sol-artifact-1",
  "contractName": "MyDepositContract",
  "sourceName": "contracts/Deposit.sol",
  "abi": [
    {
      "inputs": [
        {
          "internalType": "contract IERC20",
          "name": "_erc20Token",
          "type": "address"
        }
      ],
      "stateMutability": "nonpayable",
      "type": "constructor"
    },
    {
      "inputs": [
        {
          "internalType": "address",
          "name": "sender",
          "type": "address"
        },
        {
          "internalType": "uint256",
          "name": "tokenId",
          "type": "uint256"
        },
        {
          "internalType": "address",
          "name": "owner",
          "type": "address"
        }
      ],
      "name": "ERC721IncorrectOwner",
      "type": "error"
    },
    {
      "inputs": [
        {
          "internalType": "address",
          "name": "operator",
          "type": "address"
        },
        {
          "internalType": "uint256",
          "name": "tokenId",
          "type": "uint256"
        }
      ],
      "name": "ERC721InsufficientApproval",
      "type": "error"
    },
    {
      "inputs": [
        {
          "internalType": "address",
          "name": "approver",
          "type": "address"
        }
      ],
      "name": "ERC721InvalidApprover",
      "type": "error"
    },
    {
      "inputs": [
        {
          "internalType": "address",
          "name": "operator",
          "type": "address"
        }
      ],
      "name": "ERC721InvalidOperator",
      "type": "error"
    },
    {
      "inputs": [
        {
          "internalType": "address",
          "name": "owner",
          "type": "address"
        }
      ],
      "name": "ERC721InvalidOwner",
      "type": "error"
    },
    {
      "inputs": [
        {
          "internalType": "address",
          "name": "receiver",
          "type": "address"
        }
      ],
      "name": "ERC721InvalidReceiver",
      "type": "error"
    },
    {
      "inputs": [
        {
          "internalType": "address",
          "name": "sender",
          "type": "address"
        }
      ],
      "name": "ERC721InvalidSender",
      "type": "error"
    },
    {
      "inputs": [
        {
          "internalType": "uint256",
          "name": "tokenId",
          "type": "uint256"
        }
      ],
      "name": "ERC721NonexistentToken",
      "type": "error"
    },
    {
      "inputs": [
        {
          "internalType": "address",
          "name": "owner",
          "type": "address"
        }
      ],
      "name": "OwnableInvalidOwner",
      "type": "error"
    },
    {
      "inputs": [
        {
          "internalType": "address",
          "name": "account",
          "type": "address"
        }
      ],
      "name": "OwnableUnauthorizedAccount",
      "type": "error"
    },
    {
      "anonymous": false,
      "inputs": [
        {
          "indexed": true,
          "internalType": "address",
          "name": "owner",
          "type": "address"
        },
        {
          "indexed": true,
          "internalType": "address",
          "name": "approved",
          "type": "address"
        },
        {
          "indexed": true,
          "internalType": "uint256",
          "name": "tokenId",
          "type": "uint256"
        }
      ],
      "name": "Approval",
      "type": "event"
    },
    {
      "anonymous": false,
      "inputs": [
        {
          "indexed": true,
          "internalType": "address",
          "name": "owner",
          "type": "address"
        },
        {
          "indexed": true,
          "internalType": "address",
          "name": "operator",
          "type": "address"
        },
        {
          "indexed": false,
          "internalType": "bool",
          "name": "approved",
          "type": "bool"
        }
      ],
      "name": "ApprovalForAll",
      "type": "event"
    },
    {
      "anonymous": false,
      "inputs": [
        {
          "indexed": true,
          "internalType": "address",
          "name": "previousOwner",
          "type": "address"
        },
        {
          "indexed": true,
          "internalType": "address",
          "name": "newOwner",
          "type": "address"
        }
      ],
      "name": "OwnershipTransferred",
      "type": "event"
    },
    {
      "anonymous": false,
      "inputs": [
        {
          "indexed": true,
          "internalType": "address",
          "name": "from",
          "type": "address"
        },
        {
          "indexed": true,
          "internalType": "address",
          "name": "to",
          "type": "address"
        },
        {
          "indexed": true,
          "internalType": "uint256",
          "name": "tokenId",
          "type": "uint256"
        }
      ],
      "name": "Transfer",
      "type": "event"
    },
    {
      "inputs": [],
      "name": "DEPOSIT_THRESHOLD",
      "outputs": [
        {
          "internalType": "uint256",
          "name": "",
          "type": "uint256"
        }
      ],
      "stateMutability": "view",
      "type": "function"
    },
    {
      "inputs": [
        {
          "internalType": "address",
          "name": "to",
          "type": "address"
        },
        {
          "internalType": "uint256",
          "name": "tokenId",
          "type": "uint256"
        }
      ],
      "name": "approve",
      "outputs": [],
      "stateMutability": "nonpayable",
      "type": "function"
    },
    {
      "inputs": [
        {
          "internalType": "address",
          "name": "owner",
          "type": "address"
        }
      ],
      "name": "balanceOf",
      "outputs": [
        {
          "internalType": "uint256",
          "name": "",
          "type": "uint256"
        }
      ],
      "stateMutability": "view",
      "type": "function"
    },
    {
      "inputs": [
        {
          "internalType": "uint256",
          "name": "amount",
          "type": "uint256"
        }
      ],
      "name": "deposit",
      "outputs": [],
      "stateMutability": "nonpayable",
      "type": "function"
    },
    {
      "inputs": [
        {
          "internalType": "address",
          "name": "",
          "type": "address"
        }
      ],
      "name": "deposits",
      "outputs": [
        {
          "internalType": "uint256",
          "name": "",
          "type": "uint256"
        }
      ],
      "stateMutability": "view",
      "type": "function"
    },
    {
      "inputs": [],
      "name": "erc20Token",
      "outputs": [
        {
          "internalType": "contract IERC20",
          "name": "",
          "type": "address"
        }
      ],
      "stateMutability": "view",
      "type": "function"
    },
    {
      "inputs": [
        {
          "internalType": "uint256",
          "name": "tokenId",
          "type": "uint256"
        }
      ],
      "name": "getApproved",
      "outputs": [
        {
          "internalType": "address",
          "name": "",
          "type": "address"
        }
      ],
      "stateMutability": "view",
      "type": "function"
    },
    {
      "inputs": [],
      "name": "getNextTokenId",
      "outputs": [
        {
          "internalType": "uint256",
          "name": "",
          "type": "uint256"
        }
      ],
      "stateMutability": "view",
      "type": "function"
    },
    {
      "inputs": [
        {
          "internalType": "address",
          "name": "owner",
          "type": "address"
        },
        {
          "internalType": "address",
          "name": "operator",
          "type": "address"
        }
      ],
      "name": "isApprovedForAll",
      "outputs": [
        {
          "internalType": "bool",
          "name": "",
          "type": "bool"
        }
      ],
      "stateMutability": "view",
      "type": "function"
    },
    {
      "inputs": [
        {
          "internalType": "address",
          "name": "to",
          "type": "address"
        }
      ],
      "name": "mintNFT",
      "outputs": [],
      "stateMutability": "nonpayable",
      "type": "function"
    },
    {
      "inputs": [],
      "name": "name",
      "outputs": [
        {
          "internalType": "string",
          "name": "",
          "type": "string"
        }
      ],
      "stateMutability": "view",
      "type": "function"
    },
    {
      "inputs": [],
      "name": "nextTokenId",
      "outputs": [
        {
          "internalType": "uint256",
          "name": "",
          "type": "uint256"
        }
      ],
      "stateMutability": "view",
      "type": "function"
    },
    {
      "inputs": [],
      "name": "owner",
      "outputs": [
        {
          "internalType": "address",
          "name": "",
          "type": "address"
        }
      ],
      "stateMutability": "view",
      "type": "function"
    },
    {
      "inputs": [
        {
          "internalType": "uint256",
          "name": "tokenId",
          "type": "uint256"
        }
      ],
      "name": "ownerOf",
      "outputs": [
        {
          "internalType": "address",
          "name": "",
          "type": "address"
        }
      ],
      "stateMutability": "view",
      "type": "function"
    },
    {
      "inputs": [],
      "name": "renounceOwnership",
      "outputs": [],
      "stateMutability": "nonpayable",
      "type": "function"
    },
    {
      "inputs": [
        {
          "internalType": "address",
          "name": "from",
          "type": "address"
        },
        {
          "internalType": "address",
          "name": "to",
          "type": "address"
        },
        {
          "internalType": "uint256",
          "name": "tokenId",
          "type": "uint256"
        }
      ],
      "name": "safeTransferFrom",
      "outputs": [],
      "stateMutability": "nonpayable",
      "type": "function"
    },
    {
      "inputs": [
        {
          "internalType": "address",
          "name": "from",
          "type": "address"
        },
        {
          "internalType": "address",
          "name": "to",
          "type": "address"
        },
        {
          "internalType": "uint256",
          "name": "tokenId",
          "type": "uint256"
        },
        {
          "internalType": "bytes",
          "name": "data",
          "type": "bytes"
        }
      ],
      "name": "safeTransferFrom",
      "outputs": [],
      "stateMutability": "nonpayable",
      "type": "function"
    },
    {
      "inputs": [
        {
          "internalType": "address",
          "name": "operator",
          "type": "address"
        },
        {
          "internalType": "bool",
          "name": "approved",
          "type": "bool"
        }
      ],
      "name": "setApprovalForAll",
      "outputs": [],
      "stateMutability": "nonpayable",
      "type": "function"
    },
    {
      "inputs": [
        {
          "internalType": "bytes4",
          "name": "interfaceId",
          "type": "bytes4"
        }
      ],
      "name": "supportsInterface",
      "outputs": [
        {
          "internalType": "bool",
          "name": "",
          "type": "bool"
        }
      ],
      "stateMutability": "view",
      "type": "function"
    },
    {
      "inputs": [],
      "name": "symbol",
      "outputs": [
        {
          "internalType": "string",
          "name": "",
          "type": "string"
        }
      ],
      "stateMutability": "view",
      "type": "function"
    },
    {
      "inputs": [
        {
          "internalType": "uint256",
          "name": "tokenId",
          "type": "uint256"
        }
      ],
      "name": "tokenURI",
      "outputs": [
        {
          "internalType": "string",
          "name": "",
          "type": "string"
        }
      ],
      "stateMutability": "view",
      "type": "function"
    },
    {
      "inputs": [
        {
          "internalType": "address",
          "name": "from",
          "type": "address"
        },
        {
          "internalType": "address",
          "name": "to",
          "type": "address"
        },
        {
          "internalType": "uint256",
          "name": "tokenId",
          "type": "uint256"
        }
      ],
      "name": "transferFrom",
      "outputs": [],
      "stateMutability": "nonpayable",
      "type": "function"
    },
    {
      "inputs": [
        {
          "internalType": "address",
          "name": "newOwner",
          "type": "address"
        }
      ],
      "name": "transferOwnership",
      "outputs": [],
      "stateMutability": "nonpayable",
      "type": "function"
    }
  ],
  "bytecode": "0x60806040523480156200001157600080fd5b5060405162002df438038062002df48339818101604052810190620000379190620002dd565b336040518060400160405280600581526020017f4d794e46540000000000000000000000000000000000000000000000000000008152506040518060400160405280600481526020017f4d4e4654000000000000000000000000000000000000000000000000000000008152508160009081620000b5919062000589565b508060019081620000c7919062000589565b505050600073ffffffffffffffffffffffffffffffffffffffff168173ffffffffffffffffffffffffffffffffffffffff16036200013f5760006040517f1e4fbdf700000000000000000000000000000000000000000000000000000000815260040162000136919062000681565b60405180910390fd5b62000150816200019960201b60201c565b5080600760006101000a81548173ffffffffffffffffffffffffffffffffffffffff021916908373ffffffffffffffffffffffffffffffffffffffff160217905550506200069e565b6000600660009054906101000a900473ffffffffffffffffffffffffffffffffffffffff16905081600660006101000a81548173ffffffffffffffffffffffffffffffffffffffff021916908373ffffffffffffffffffffffffffffffffffffffff1602179055508173ffffffffffffffffffffffffffffffffffffffff168173ffffffffffffffffffffffffffffffffffffffff167f8be0079c531659141344cd1fd0a4f28419497f9722a3daafe3b4186f6b6457e060405160405180910390a35050565b600080fd5b600073ffffffffffffffffffffffffffffffffffffffff82169050919050565b6000620002918262000264565b9050919050565b6000620002a58262000284565b9050919050565b620002b78162000298565b8114620002c357600080fd5b50565b600081519050620002d781620002ac565b92915050565b600060208284031215620002f657620002f56200025f565b5b60006200030684828501620002c6565b91505092915050565b600081519050919050565b7f4e487b7100000000000000000000000000000000000000000000000000000000600052604160045260246000fd5b7f4e487b7100000000000000000000000000000000000000000000000000000000600052602260045260246000fd5b600060028204905060018216806200039157607f821691505b602082108103620003a757620003a662000349565b5b50919050565b60008190508160005260206000209050919050565b60006020601f8301049050919050565b600082821b905092915050565b600060088302620004117fffffffffffffffffffffffffffffffffffffffffffffffffffffffffffffffff82620003d2565b6200041d8683620003d2565b95508019841693508086168417925050509392505050565b6000819050919050565b6000819050919050565b60006200046a620004646200045e8462000435565b6200043f565b62000435565b9050919050565b6000819050919050565b620004868362000449565b6200049e620004958262000471565b848454620003df565b825550505050565b600090565b620004b5620004a6565b620004c28184846200047b565b505050565b5b81811015620004ea57620004de600082620004ab565b600181019050620004c8565b5050565b601f82111562000539576200050381620003ad565b6200050e84620003c2565b810160208510156200051e578190505b620005366200052d85620003c2565b830182620004c7565b50505b505050565b600082821c905092915050565b60006200055e600019846008026200053e565b1980831691505092915050565b60006200057983836200054b565b9150826002028217905092915050565b62000594826200030f565b67ffffffffffffffff811115620005b057620005af6200031a565b5b620005bc825462000378565b620005c9828285620004ee565b600060209050601f831160018114620006015760008415620005ec578287015190505b620005f885826200056b565b86555062000668565b601f1984166200061186620003ad565b60005b828110156200063b5784890151825560018201915060208501945060208101905062000614565b868310156200065b578489015162000657601f8916826200054b565b8355505b6001600288020188555050505b505050505050565b6200067b8162000284565b82525050565b600060208201905062000698600083018462000670565b92915050565b61274680620006ae6000396000f3fe608060405234801561001057600080fd5b506004361061014d5760003560e01c80638a13eea7116100c3578063c87b56dd1161007c578063c87b56dd14610376578063caa0f92a146103a6578063d9fb27b9146103c4578063e985e9c5146103e2578063f2fde38b14610412578063fc7e286d1461042e5761014d565b80638a13eea7146102c85780638da5cb5b146102e657806395d89b4114610304578063a22cb46514610322578063b6b55f251461033e578063b88d4fde1461035a5761014d565b806342842e0e1161011557806342842e0e1461020857806354ba0f27146102245780636352211e1461024057806370a0823114610270578063715018a6146102a057806375794a3c146102aa5761014d565b806301ffc9a71461015257806306fdde0314610182578063081812fc146101a0578063095ea7b3146101d057806323b872dd146101ec575b600080fd5b61016c60048036038101906101679190611caf565b61045e565b6040516101799190611cf7565b60405180910390f35b61018a610540565b6040516101979190611da2565b60405180910390f35b6101ba60048036038101906101b59190611dfa565b6105d2565b6040516101c79190611e68565b60405180910390f35b6101ea60048036038101906101e59190611eaf565b6105ee565b005b61020660048036038101906102019190611eef565b610604565b005b610222600480360381019061021d9190611eef565b610706565b005b61023e60048036038101906102399190611f42565b610726565b005b61025a60048036038101906102559190611dfa565b61074d565b6040516102679190611e68565b60405180910390f35b61028a60048036038101906102859190611f42565b61075f565b6040516102979190611f7e565b60405180910390f35b6102a8610819565b005b6102b261082d565b6040516102bf9190611f7e565b60405180910390f35b6102d0610833565b6040516102dd9190611ff8565b60405180910390f35b6102ee610859565b6040516102fb9190611e68565b60405180910390f35b61030c610883565b6040516103199190611da2565b60405180910390f35b61033c6004803603810190610337919061203f565b610915565b005b61035860048036038101906103539190611dfa565b61092b565b005b610374600480360381019061036f91906121b4565b610bb3565b005b610390600480360381019061038b9190611dfa565b610bd0565b60405161039d9190611da2565b60405180910390f35b6103ae610c39565b6040516103bb9190611f7e565b60405180910390f35b6103cc610c43565b6040516103d99190611f7e565b60405180910390f35b6103fc60048036038101906103f79190612237565b610c49565b6040516104099190611cf7565b60405180910390f35b61042c60048036038101906104279190611f42565b610cdd565b005b61044860048036038101906104439190611f42565b610d63565b6040516104559190611f7e565b60405180910390f35b60007f80ac58cd000000000000000000000000000000000000000000000000000000007bffffffffffffffffffffffffffffffffffffffffffffffffffffffff1916827bffffffffffffffffffffffffffffffffffffffffffffffffffffffff1916148061052957507f5b5e139f000000000000000000000000000000000000000000000000000000007bffffffffffffffffffffffffffffffffffffffffffffffffffffffff1916827bffffffffffffffffffffffffffffffffffffffffffffffffffffffff1916145b80610539575061053882610d7b565b5b9050919050565b60606000805461054f906122a6565b80601f016020809104026020016040519081016040528092919081815260200182805461057b906122a6565b80156105c85780601f1061059d576101008083540402835291602001916105c8565b820191906000526020600020905b8154815290600101906020018083116105ab57829003601f168201915b5050505050905090565b60006105dd82610de5565b506105e782610e6d565b9050919050565b61060082826105fb610eaa565b610eb2565b5050565b600073ffffffffffffffffffffffffffffffffffffffff168273ffffffffffffffffffffffffffffffffffffffff16036106765760006040517f64a0ae9200000000000000000000000000000000000000000000000000000000815260040161066d9190611e68565b60405180910390fd5b600061068a8383610685610eaa565b610ec4565b90508373ffffffffffffffffffffffffffffffffffffffff168173ffffffffffffffffffffffffffffffffffffffff1614610700578382826040517f64283d7b0000000000000000000000000000000000000000000000000000000081526004016106f7939291906122d7565b60405180910390fd5b50505050565b61072183838360405180602001604052806000815250610bb3565b505050565b610732816008546110de565b600860008154809291906107459061233d565b919050555050565b600061075882610de5565b9050919050565b60008073ffffffffffffffffffffffffffffffffffffffff168273ffffffffffffffffffffffffffffffffffffffff16036107d25760006040517f89c62b640000000000000000000000000000000000000000000000000000000081526004016107c99190611e68565b60405180910390fd5b600360008373ffffffffffffffffffffffffffffffffffffffff1673ffffffffffffffffffffffffffffffffffffffff168152602001908152602001600020549050919050565b6108216110fc565b61082b6000611183565b565b60085481565b600760009054906101000a900473ffffffffffffffffffffffffffffffffffffffff1681565b6000600660009054906101000a900473ffffffffffffffffffffffffffffffffffffffff16905090565b606060018054610892906122a6565b80601f01602080910402602001604051908101604052809291908181526020018280546108be906122a6565b801561090b5780601f106108e05761010080835404028352916020019161090b565b820191906000526020600020905b8154815290600101906020018083116108ee57829003601f168201915b5050505050905090565b610927610920610eaa565b8383611249565b5050565b6000811161096e576040517f08c379a0000000000000000000000000000000000000000000000000000000008152600401610965906123d1565b60405180910390fd5b80600760009054906101000a900473ffffffffffffffffffffffffffffffffffffffff1673ffffffffffffffffffffffffffffffffffffffff1663dd62ed3e33306040518363ffffffff1660e01b81526004016109cc9291906123f1565b602060405180830381865afa1580156109e9573d6000803e3d6000fd5b505050506040513d601f19601f82011682018060405250810190610a0d919061242f565b1015610a4e576040517f08c379a0000000000000000000000000000000000000000000000000000000008152600401610a45906124a8565b60405180910390fd5b600760009054906101000a900473ffffffffffffffffffffffffffffffffffffffff1673ffffffffffffffffffffffffffffffffffffffff166323b872dd3330846040518463ffffffff1660e01b8152600401610aad939291906124c8565b6020604051808303816000875af1158015610acc573d6000803e3d6000fd5b505050506040513d601f19601f82011682018060405250810190610af09190612514565b5080600960003373ffffffffffffffffffffffffffffffffffffffff1673ffffffffffffffffffffffffffffffffffffffff1681526020019081526020016000206000828254610b409190612541565b92505081905550612710600960003373ffffffffffffffffffffffffffffffffffffffff1673ffffffffffffffffffffffffffffffffffffffff1681526020019081526020016000205410158015610ba157506001610b9e3361075f565b11155b15610bb057610baf33610726565b5b50565b610bbe848484610604565b610bca848484846113b8565b50505050565b6060610bdb82610de5565b506000610be661156f565b90506000815111610c065760405180602001604052806000815250610c31565b80610c1084611586565b604051602001610c219291906125b1565b6040516020818303038152906040525b915050919050565b6000600854905090565b61271081565b6000600560008473ffffffffffffffffffffffffffffffffffffffff1673ffffffffffffffffffffffffffffffffffffffff16815260200190815260200160002060008373ffffffffffffffffffffffffffffffffffffffff1673ffffffffffffffffffffffffffffffffffffffff16815260200190815260200160002060009054906101000a900460ff16905092915050565b610ce56110fc565b600073ffffffffffffffffffffffffffffffffffffffff168173ffffffffffffffffffffffffffffffffffffffff1603610d575760006040517f1e4fbdf7000000000000000000000000000000000000000000000000000000008152600401610d4e9190611e68565b60405180910390fd5b610d6081611183565b50565b60096020528060005260406000206000915090505481565b60007f01ffc9a7000000000000000000000000000000000000000000000000000000007bffffffffffffffffffffffffffffffffffffffffffffffffffffffff1916827bffffffffffffffffffffffffffffffffffffffffffffffffffffffff1916149050919050565b600080610df183611654565b9050600073ffffffffffffffffffffffffffffffffffffffff168173ffffffffffffffffffffffffffffffffffffffff1603610e6457826040517f7e273289000000000000000000000000000000000000000000000000000000008152600401610e5b9190611f7e565b60405180910390fd5b80915050919050565b60006004600083815260200190815260200160002060009054906101000a900473ffffffffffffffffffffffffffffffffffffffff169050919050565b600033905090565b610ebf8383836001611691565b505050565b600080610ed084611654565b9050600073ffffffffffffffffffffffffffffffffffffffff168373ffffffffffffffffffffffffffffffffffffffff1614610f1257610f11818486611856565b5b600073ffffffffffffffffffffffffffffffffffffffff168173ffffffffffffffffffffffffffffffffffffffff1614610fa357610f54600085600080611691565b6001600360008373ffffffffffffffffffffffffffffffffffffffff1673ffffffffffffffffffffffffffffffffffffffff168152602001908152602001600020600082825403925050819055505b600073ffffffffffffffffffffffffffffffffffffffff168573ffffffffffffffffffffffffffffffffffffffff1614611026576001600360008773ffffffffffffffffffffffffffffffffffffffff1673ffffffffffffffffffffffffffffffffffffffff168152602001908152602001600020600082825401925050819055505b846002600086815260200190815260200160002060006101000a81548173ffffffffffffffffffffffffffffffffffffffff021916908373ffffffffffffffffffffffffffffffffffffffff160217905550838573ffffffffffffffffffffffffffffffffffffffff168273ffffffffffffffffffffffffffffffffffffffff167fddf252ad1be2c89b69c2b068fc378daa952ba7f163c4a11628f55a4df523b3ef60405160405180910390a4809150509392505050565b6110f882826040518060200160405280600081525061191a565b5050565b611104610eaa565b73ffffffffffffffffffffffffffffffffffffffff16611122610859565b73ffffffffffffffffffffffffffffffffffffffff161461118157611145610eaa565b6040517f118cdaa70000000000000000000000000000000000000000000000000000000081526004016111789190611e68565b60405180910390fd5b565b6000600660009054906101000a900473ffffffffffffffffffffffffffffffffffffffff16905081600660006101000a81548173ffffffffffffffffffffffffffffffffffffffff021916908373ffffffffffffffffffffffffffffffffffffffff1602179055508173ffffffffffffffffffffffffffffffffffffffff168173ffffffffffffffffffffffffffffffffffffffff167f8be0079c531659141344cd1fd0a4f28419497f9722a3daafe3b4186f6b6457e060405160405180910390a35050565b600073ffffffffffffffffffffffffffffffffffffffff168273ffffffffffffffffffffffffffffffffffffffff16036112ba57816040517f5b08ba180000000000000000000000000000000000000000000000000000000081526004016112b19190611e68565b60405180910390fd5b80600560008573ffffffffffffffffffffffffffffffffffffffff1673ffffffffffffffffffffffffffffffffffffffff16815260200190815260200160002060008473ffffffffffffffffffffffffffffffffffffffff1673ffffffffffffffffffffffffffffffffffffffff16815260200190815260200160002060006101000a81548160ff0219169083151502179055508173ffffffffffffffffffffffffffffffffffffffff168373ffffffffffffffffffffffffffffffffffffffff167f17307eab39ab6107e8899845ad3d59bd9653f200f220920489ca2b5937696c31836040516113ab9190611cf7565b60405180910390a3505050565b60008373ffffffffffffffffffffffffffffffffffffffff163b1115611569578273ffffffffffffffffffffffffffffffffffffffff1663150b7a026113fc610eaa565b8685856040518563ffffffff1660e01b815260040161141e949392919061262a565b6020604051808303816000875af192505050801561145a57506040513d601f19601f82011682018060405250810190611457919061268b565b60015b6114de573d806000811461148a576040519150601f19603f3d011682016040523d82523d6000602084013e61148f565b606091505b5060008151036114d657836040517f64a0ae920000000000000000000000000000000000000000000000000000000081526004016114cd9190611e68565b60405180910390fd5b805181602001fd5b63150b7a0260e01b7bffffffffffffffffffffffffffffffffffffffffffffffffffffffff1916817bffffffffffffffffffffffffffffffffffffffffffffffffffffffff19161461156757836040517f64a0ae9200000000000000000000000000000000000000000000000000000000815260040161155e9190611e68565b60405180910390fd5b505b50505050565b606060405180602001604052806000815250905090565b60606000600161159584611936565b01905060008167ffffffffffffffff8111156115b4576115b3612089565b5b6040519080825280601f01601f1916602001820160405280156115e65781602001600182028036833780820191505090505b509050600082602001820190505b600115611649578080600190039150507f3031323334353637383961626364656600000000000000000000000000000000600a86061a8153600a858161163d5761163c6126b8565b5b049450600085036115f4575b819350505050919050565b60006002600083815260200190815260200160002060009054906101000a900473ffffffffffffffffffffffffffffffffffffffff169050919050565b80806116ca5750600073ffffffffffffffffffffffffffffffffffffffff168273ffffffffffffffffffffffffffffffffffffffff1614155b156117fe5760006116da84610de5565b9050600073ffffffffffffffffffffffffffffffffffffffff168373ffffffffffffffffffffffffffffffffffffffff161415801561174557508273ffffffffffffffffffffffffffffffffffffffff168173ffffffffffffffffffffffffffffffffffffffff1614155b801561175857506117568184610c49565b155b1561179a57826040517fa9fbf51f0000000000000000000000000000000000000000000000000000000081526004016117919190611e68565b60405180910390fd5b81156117fc57838573ffffffffffffffffffffffffffffffffffffffff168273ffffffffffffffffffffffffffffffffffffffff167f8c5be1e5ebec7d5bd14f71427d1e84f3dd0314c0f7b2291e5b200ac8c7c3b92560405160405180910390a45b505b836004600085815260200190815260200160002060006101000a81548173ffffffffffffffffffffffffffffffffffffffff021916908373ffffffffffffffffffffffffffffffffffffffff16021790555050505050565b611861838383611a89565b61191557600073ffffffffffffffffffffffffffffffffffffffff168373ffffffffffffffffffffffffffffffffffffffff16036118d657806040517f7e2732890000000000000000000000000000000000000000000000000000000081526004016118cd9190611f7e565b60405180910390fd5b81816040517f177e802f00000000000000000000000000000000000000000000000000000000815260040161190c9291906126e7565b60405180910390fd5b505050565b6119248383611b4a565b61193160008484846113b8565b505050565b600080600090507a184f03e93ff9f4daa797ed6e38ed64bf6a1f0100000000000000008310611994577a184f03e93ff9f4daa797ed6e38ed64bf6a1f010000000000000000838161198a576119896126b8565b5b0492506040810190505b6d04ee2d6d415b85acef810000000083106119d1576d04ee2d6d415b85acef810000000083816119c7576119c66126b8565b5b0492506020810190505b662386f26fc100008310611a0057662386f26fc1000083816119f6576119f56126b8565b5b0492506010810190505b6305f5e1008310611a29576305f5e1008381611a1f57611a1e6126b8565b5b0492506008810190505b6127108310611a4e576127108381611a4457611a436126b8565b5b0492506004810190505b60648310611a715760648381611a6757611a666126b8565b5b0492506002810190505b600a8310611a80576001810190505b80915050919050565b60008073ffffffffffffffffffffffffffffffffffffffff168373ffffffffffffffffffffffffffffffffffffffff1614158015611b4157508273ffffffffffffffffffffffffffffffffffffffff168473ffffffffffffffffffffffffffffffffffffffff161480611b025750611b018484610c49565b5b80611b4057508273ffffffffffffffffffffffffffffffffffffffff16611b2883610e6d565b73ffffffffffffffffffffffffffffffffffffffff16145b5b90509392505050565b600073ffffffffffffffffffffffffffffffffffffffff168273ffffffffffffffffffffffffffffffffffffffff1603611bbc5760006040517f64a0ae92000000000000000000000000000000000000000000000000000000008152600401611bb39190611e68565b60405180910390fd5b6000611bca83836000610ec4565b9050600073ffffffffffffffffffffffffffffffffffffffff168173ffffffffffffffffffffffffffffffffffffffff1614611c3e5760006040517f73c6ac6e000000000000000000000000000000000000000000000000000000008152600401611c359190611e68565b60405180910390fd5b505050565b6000604051905090565b600080fd5b600080fd5b60007fffffffff0000000000000000000000000000000000000000000000000000000082169050919050565b611c8c81611c57565b8114611c9757600080fd5b50565b600081359050611ca981611c83565b92915050565b600060208284031215611cc557611cc4611c4d565b5b6000611cd384828501611c9a565b91505092915050565b60008115159050919050565b611cf181611cdc565b82525050565b6000602082019050611d0c6000830184611ce8565b92915050565b600081519050919050565b600082825260208201905092915050565b60005b83811015611d4c578082015181840152602081019050611d31565b60008484015250505050565b6000601f19601f8301169050919050565b6000611d7482611d12565b611d7e8185611d1d565b9350611d8e818560208601611d2e565b611d9781611d58565b840191505092915050565b60006020820190508181036000830152611dbc8184611d69565b905092915050565b6000819050919050565b611dd781611dc4565b8114611de257600080fd5b50565b600081359050611df481611dce565b92915050565b600060208284031215611e1057611e0f611c4d565b5b6000611e1e84828501611de5565b91505092915050565b600073ffffffffffffffffffffffffffffffffffffffff82169050919050565b6000611e5282611e27565b9050919050565b611e6281611e47565b82525050565b6000602082019050611e7d6000830184611e59565b92915050565b611e8c81611e47565b8114611e9757600080fd5b50565b600081359050611ea981611e83565b92915050565b60008060408385031215611ec657611ec5611c4d565b5b6000611ed485828601611e9a565b9250506020611ee585828601611de5565b9150509250929050565b600080600060608486031215611f0857611f07611c4d565b5b6000611f1686828701611e9a565b9350506020611f2786828701611e9a565b9250506040611f3886828701611de5565b9150509250925092565b600060208284031215611f5857611f57611c4d565b5b6000611f6684828501611e9a565b91505092915050565b611f7881611dc4565b82525050565b6000602082019050611f936000830184611f6f565b92915050565b6000819050919050565b6000611fbe611fb9611fb484611e27565b611f99565b611e27565b9050919050565b6000611fd082611fa3565b9050919050565b6000611fe282611fc5565b9050919050565b611ff281611fd7565b82525050565b600060208201905061200d6000830184611fe9565b92915050565b61201c81611cdc565b811461202757600080fd5b50565b60008135905061203981612013565b92915050565b6000806040838503121561205657612055611c4d565b5b600061206485828601611e9a565b92505060206120758582860161202a565b9150509250929050565b600080fd5b600080fd5b7f4e487b7100000000000000000000000000000000000000000000000000000000600052604160045260246000fd5b6120c182611d58565b810181811067ffffffffffffffff821117156120e0576120df612089565b5b80604052505050565b60006120f3611c43565b90506120ff82826120b8565b919050565b600067ffffffffffffffff82111561211f5761211e612089565b5b61212882611d58565b9050602081019050919050565b82818337600083830152505050565b600061215761215284612104565b6120e9565b90508281526020810184848401111561217357612172612084565b5b61217e848285612135565b509392505050565b600082601f83011261219b5761219a61207f565b5b81356121ab848260208601612144565b91505092915050565b600080600080608085870312156121ce576121cd611c4d565b5b60006121dc87828801611e9a565b94505060206121ed87828801611e9a565b93505060406121fe87828801611de5565b925050606085013567ffffffffffffffff81111561221f5761221e611c52565b5b61222b87828801612186565b91505092959194509250565b6000806040838503121561224e5761224d611c4d565b5b600061225c85828601611e9a565b925050602061226d85828601611e9a565b9150509250929050565b7f4e487b7100000000000000000000000000000000000000000000000000000000600052602260045260246000fd5b600060028204905060018216806122be57607f821691505b6020821081036122d1576122d0612277565b5b50919050565b60006060820190506122ec6000830186611e59565b6122f96020830185611f6f565b6123066040830184611e59565b949350505050565b7f4e487b7100000000000000000000000000000000000000000000000000000000600052601160045260246000fd5b600061234882611dc4565b91507fffffffffffffffffffffffffffffffffffffffffffffffffffffffffffffffff820361237a5761237961230e565b5b600182019050919050565b7f416d6f756e74206d7573742062652067726561746572207468616e207a65726f600082015250565b60006123bb602083611d1d565b91506123c682612385565b602082019050919050565b600060208201905081810360008301526123ea816123ae565b9050919050565b60006040820190506124066000830185611e59565b6124136020830184611e59565b9392505050565b60008151905061242981611dce565b92915050565b60006020828403121561244557612444611c4d565b5b60006124538482850161241a565b91505092915050565b7f6572726f72000000000000000000000000000000000000000000000000000000600082015250565b6000612492600583611d1d565b915061249d8261245c565b602082019050919050565b600060208201905081810360008301526124c181612485565b9050919050565b60006060820190506124dd6000830186611e59565b6124ea6020830185611e59565b6124f76040830184611f6f565b949350505050565b60008151905061250e81612013565b92915050565b60006020828403121561252a57612529611c4d565b5b6000612538848285016124ff565b91505092915050565b600061254c82611dc4565b915061255783611dc4565b925082820190508082111561256f5761256e61230e565b5b92915050565b600081905092915050565b600061258b82611d12565b6125958185612575565b93506125a5818560208601611d2e565b80840191505092915050565b60006125bd8285612580565b91506125c98284612580565b91508190509392505050565b600081519050919050565b600082825260208201905092915050565b60006125fc826125d5565b61260681856125e0565b9350612616818560208601611d2e565b61261f81611d58565b840191505092915050565b600060808201905061263f6000830187611e59565b61264c6020830186611e59565b6126596040830185611f6f565b818103606083015261266b81846125f1565b905095945050505050565b60008151905061268581611c83565b92915050565b6000602082840312156126a1576126a0611c4d565b5b60006126af84828501612676565b91505092915050565b7f4e487b7100000000000000000000000000000000000000000000000000000000600052601260045260246000fd5b60006040820190506126fc6000830185611e59565b6127096020830184611f6f565b939250505056fea2646970667358221220f92585e4913cf3239f57ba68160df0c7ce8c378d7dc9154b3735d2b66b3985d264736f6c63430008140033",
  "linkReferences": {},
  "deployedLinkReferences": {}
}